:020000040800F2
:1000000000000220755A00087D5100087F51000849
:10001000815100088351000885510008000000004C
:1000200000000000000000000000000087510008F0
:1000300089510008000000008B5100088D51000814
:10004000C55A0008C55A0008C55A0008C55A000814
:10005000C55A0008C55A0008C55A0008C55A000804
:10006000C55A0008C55A0008C55A0008C55A0008F4
:10007000C55A0008C55A0008C55A0008C55A0008E4
:10008000C55A0008C55A0008C55A0008C55A0008D4
:10009000C55A0008C55A0008C55A00089151000801
:1000A000C55A0008C55A0008C55A0008C55A0008B4
:1000B000C55A0008C55A0008C55A000899510008D9
:1000C000A5510008B1510008BD510008C55A0008EB
:1000D000C55A0008C9510008C55A0008C55A000889
:1000E000FD510008C55A0008C55A0008C55A000845
:1000F000C55A0008C55A0008C55A0008C55A000864
:10010000C55A0008C55A0008C55A0008C55A000853
:10011000C55A0008C55A0008C55A0008C55A000843
:10012000C55A0008C55A0008C55A0008C55A000833
:10013000C55A0008C55A0008C55A0008C55A000823
:10014000C55A0008C55A0008C55A0008C55A000813
:10015000C55A0008C55A0008C55A000815520008BB
:10016000C55A0008C55A0008C55A0008C55A0008F3
:10017000C55A0008C55A0008C55A0008000000000A
:08018000C55A0008C55A000829
:1001900010B5054C237833B9044B13B10448AFF3C1
:1001A00000800123237010BDE0010020000000004A
:1001B000708F000808B5034B1BB103490348AFF328
:1001C000008008BD00000000E4010020708F0008DE
:1001D000034613F8012B002AFBD1181A0138704787
:1001E00001F0FF01102A2BDB10F0070F08D010F8E8
:1001F000013B013A8B422DD010F0070F42B3F6D1EC
:10020000F0B441EA012141EA014122F007047FF004
:1002100000070023F0E80256083C85EA010586EA5B
:10022000010685FA47F5A3FA87F586FA47F6A5FA97
:1002300087F68EB9EED1F0BC01F0FF0102F00702A3
:1002400032B110F8013B013A83EA010313B1F8D14E
:100250000020704701387047002D06BF354603382F
:10026000073815F0010F07D1013015F4807F02BF68
:10027000013015F4C03F0130F0BC0138704700BFB9
:1002800081F0004102E000BF83F0004330B54FEA47
:1002900041044FEA430594EA050F08BF90EA020FB4
:1002A0001FBF54EA000C55EA020C7FEA645C7FEA47
:1002B000655C00F0E2804FEA5454D4EB5555B8BF6A
:1002C0006D420CDD2C4480EA020281EA030382EADB
:1002D000000083EA010180EA020281EA0303362D6D
:1002E00088BF30BD11F0004F4FEA01314FF4801C40
:1002F0004CEA113102D0404261EB410113F0004F52
:100300004FEA03334CEA133302D0524263EB430308
:1003100094EA050F00F0A780A4F10104D5F1200EA6
:100320000DDB02FA0EFC22FA05F2801841F1000101
:1003300003FA0EF2801843FA05F359410EE0A5F1D5
:1003400020050EF1200E012A03FA0EFC28BF4CF006
:10035000020C43FA05F3C01851EBE37101F00045BC
:1003600007D54FF0000EDCF1000C7EEB00006EEBC9
:100370000101B1F5801F1BD3B1F5001F0CD3490853
:100380005FEA30004FEA3C0C04F101044FEA4452AA
:1003900012F5800F80F09A80BCF1004F08BF5FEA31
:1003A000500C50F1000041EB045141EA050130BD11
:1003B0005FEA4C0C404141EB010111F4801FA4F1B4
:1003C0000104E9D191F0000F04BF01460020B1FA09
:1003D00081F308BF2033A3F10B03B3F120020CDA41
:1003E0000C3208DD02F1140CC2F10C0201FA0CF01F
:1003F00021FA02F10CE002F11402D8BFC2F1200C84
:1004000001FA02F120FA0CFCDCBF41EA0C01904039
:10041000E41AA2BF01EB0451294330BD6FEA040482
:100420001F3C1CDA0C340EDC04F11404C4F120026D
:1004300020FA04F001FA02F340EA030021FA04F37F
:1004400045EA030130BDC4F10C04C4F1200220FAD6
:1004500002F001FA04F340EA0300294630BD21FA14
:1004600004F0294630BD94F0000F83F4801306BFDA
:1004700081F480110134013D4EE77FEA645C18BFCE
:100480007FEA655C29D094EA050F08BF90EA020F65
:1004900005D054EA000C04BF1946104630BD91EA5D
:1004A000030F1EBF0021002030BD5FEA545C05D160
:1004B0004000494128BF41F0004130BD14F580049F
:1004C0003CBF01F5801130BD01F0004545F0FE4113
:1004D00041F470014FF0000030BD7FEA645C1ABF48
:1004E000194610467FEA655C1CBF0B46024650EA7F
:1004F000013406BF52EA033591EA030F41F40021AB
:1005000030BD00BF90F0000F04BF0021704730B530
:100510004FF4806404F132044FF000054FF0000105
:1005200050E700BF90F0000F04BF0021704730B5C6
:100530004FF4806404F1320410F0004548BF40429B
:100540004FF000013EE700BF42004FEAE2014FEAF0
:1005500031014FEA02701FBF12F07F4393F07F4FCB
:1005600081F06051704792F0000F14BF93F07F4FFD
:10057000704730B54FF4607401F0004521F0004140
:1005800020E700BF50EA010208BF704730B54FF0C6
:1005900000050AE050EA010208BF704730B511F0CB
:1005A000004502D5404261EB41014FF4806404F103
:1005B00032045FEA915C3FF4DCAE4FF003025FEA85
:1005C000DC0C18BF03325FEADC0C18BF033202EB0D
:1005D000DC02C2F1200300FA03FC20FA02F001FA67
:1005E00003FE40EA0E0021FA02F11444C1E600BF06
:1005F00070B54FF0FF0C4CF4E06C1CEA11541DBFB9
:100600001CEA135594EA0C0F95EA0C0F00F0DEF883
:100610002C4481EA030621EA4C5123EA4C5350EA68
:10062000013518BF52EA033541F4801143F48013B9
:1006300038D0A0FB02CE4FF00005E1FB02E506F04A
:100640000042E0FB03E54FF00006E1FB03569CF09F
:10065000000F18BF4EF0010EA4F1FF04B6F5007FA5
:1006600064F5407404D25FEA4E0E6D4146EB060617
:1006700042EAC62141EA55514FEAC52040EA5E50A0
:100680004FEACE2EB4F1FD0C88BFBCF5E06F1ED84A
:10069000BEF1004F08BF5FEA500E50F1000041EB81
:1006A000045170BD06F0004646EA010140EA02002E
:1006B00081EA0301B4EB5C04C2BFD4EB0C0541EA50
:1006C000045170BD41F480114FF0000E013C00F365
:1006D000AB8014F1360FDEBF002001F0004170BD89
:1006E000C4F10004203C35DA0C341BDC04F11404A2
:1006F000C4F1200500FA05F320FA04F001FA05F22E
:1007000040EA020001F0004221F0004110EBD370FA
:1007100021FA04F642EB06015EEA430E08BF20EA26
:10072000D37070BDC4F10C04C4F1200500FA04F3C9
:1007300020FA05F001FA04F240EA020001F000415B
:1007400010EBD37041F100015EEA430E08BF20EACE
:10075000D37070BDC4F1200500FA05F24EEA020E16
:1007600020FA04F301FA05F243EA020321FA04F045
:1007700001F0004121FA04F220EA020000EBD370FC
:100780005EEA430E08BF20EAD37070BD94F0000FFC
:100790000FD101F00046400041EB010111F4801F30
:1007A00008BF013CF7D041EA060195F0000F18BFE1
:1007B000704703F00046520043EB030313F4801F1D
:1007C00008BF013DF7D043EA0603704794EA0C0FD7
:1007D0000CEA135518BF95EA0C0F0CD050EA4106ED
:1007E00018BF52EA4306D1D181EA030101F000416A
:1007F0004FF0000070BD50EA410606BF1046194692
:1008000052EA430619D094EA0C0F02D150EA01369D
:1008100013D195EA0C0F05D152EA03361CBF1046DE
:1008200019460AD181EA030101F0004141F0FE417D
:1008300041F470014FF0000070BD41F0FE4141F401
:10084000780170BD70B54FF0FF0C4CF4E06C1CEA01
:1008500011541DBF1CEA135594EA0C0F95EA0C0FB6
:1008600000F0A7F8A4EB050481EA030E52EA033571
:100870004FEA013100F088804FEA03334FF0805592
:1008800045EA131343EA12634FEA022245EA1115BF
:1008900045EA10654FEA00260EF000419D4208BF70
:1008A000964244F1FD0404F5407402D25B084FEA1D
:1008B0003202B61A65EB03055B084FEA32024FF4C9
:1008C00080104FF4002CB6EB020E75EB030E22BF26
:1008D000B61A754640EA0C005B084FEA3202B6EBE6
:1008E000020E75EB030E22BFB61A754640EA5C0095
:1008F0005B084FEA3202B6EB020E75EB030E22BF25
:10090000B61A754640EA9C005B084FEA3202B6EB25
:10091000020E75EB030E22BFB61A754640EADC00E4
:1009200055EA060E18D04FEA051545EA16754FEA46
:1009300006164FEAC30343EA52734FEAC2025FEA64
:100940001C1CC0D111F4801F0BD141EA00014FF0F3
:1009500000004FF0004CB6E711F4801F04BF0143C4
:100960000020B4F1FD0C88BFBCF5E06F3FF6AFAEE0
:10097000B5EB030C04BFB6EB020C5FEA500C50F170
:10098000000041EB045170BD0EF0004E4EEA1131F3
:1009900014EB5C04C2BFD4EB0C0541EA045170BDFA
:1009A00041F480114FF0000E013C90E645EA060E3E
:1009B0008DE60CEA135594EA0C0F08BF95EA0C0F6C
:1009C0003FF43BAF94EA0C0F0AD150EA01347FF4B4
:1009D00034AF95EA0C0F7FF425AF104619462CE78B
:1009E00095EA0C0F06D152EA03353FF4FDAE1046EE
:1009F000194622E750EA410618BF52EA43067FF43F
:100A0000C5AE50EA41047FF40DAF52EA43057FF4CE
:100A1000EBAE12E74FF0FF3C06E000BF4FF0010CD9
:100A200002E000BF4FF0010C4DF804CD4FEA410C3D
:100A30007FEA6C5C4FEA430C18BF7FEA6C5C1BD00A
:100A400001B050EA410C0CBF52EA430C91EA030F8B
:100A500002BF90EA020F0020704710F1000F91EAE8
:100A6000030F58BF994208BF90422CBFD8176FEAB6
:100A7000E37040F0010070474FEA410C7FEA6C5C84
:100A800002D150EA013C07D14FEA430C7FEA6C5C8B
:100A9000D6D152EA033CD3D05DF8040B704700BFB7
:100AA0008446104662468C461946634600E000BF05
:100AB00001B5FFF7B7FF002848BF10F1000F01BDD7
:100AC0004DF808EDFFF7F4FF0CBF012000205DF8A2
:100AD00008FB00BF4DF808EDFFF7EAFF34BF012027
:100AE00000205DF808FB00BF4DF808EDFFF7E0FFC0
:100AF00094BF012000205DF808FB00BF4DF808ED11
:100B0000FFF7CEFF94BF012000205DF808FB00BF77
:100B10004DF808EDFFF7C4FF34BF012000205DF859
:100B200008FB00BF4FEA410C7FEA6C5C02D150EA3F
:100B3000013C0AD14FEA430C7FEA6C5C02D152EAD5
:100B4000033C02D14FF0000070474FF001007047A6
:100B50004FEA410212F5001215D211D56FF47873E5
:100B6000B3EB625212D94FEAC12343F0004343EA88
:100B7000505311F0004F23FA02F018BF4042704763
:100B80004FF00000704750EA013005D111F00040ED
:100B900008BF6FF0004070474FF00000704700BF83
:100BA0004FEA4102B2F1E04324BFB3F5001CDCF18F
:100BB000FE5C0DD901F0004C4FEAC0024CEA5070C7
:100BC000B2F1004F40EB830008BF20F001007047F6
:100BD00011F0804F21D113F13872BCBF01F00040F9
:100BE000704741F480114FEA5252C2F11802C2F12B
:100BF000200C10FA0CF320FA02F018BF40F00100AC
:100C00004FEAC1234FEAD32303FA0CFC40EA0C005D
:100C100023FA02F34FEA4303CCE77FEA625307D19A
:100C200050EA01331EBF4FF0FE4040F440007047D1
:100C300001F0004040F0FE4040F40000704700BF6B
:100C400053B94AB9002908BF00281CBF4FF0FF3133
:100C50004FF0FF3000F07AB9ADF1080C6DE904CE29
:100C600000F006F8DDF804E0DDE9022304B0704787
:100C70002DE9F0478C460D460446089E002B51D1C5
:100C80008A4217466DD9B2FA82FEBEF1000F0BD030
:100C9000CEF1200C01FA0EF520FA0CFC02FA0EF748
:100CA0004CEA050C00FA0EF44FEA174A250CBCFB7F
:100CB000FAF81FFA87F90AFB18CC45EA0C4508FB3D
:100CC00009F3AB420AD9ED1908F1FF3280F0238114
:100CD000AB4240F22081A8F102083D44ED1AA4B2D3
:100CE000B5FBFAF00AFB105544EA054400FB09F98C
:100CF000A14509D9E41900F1FF3380F00A81A1452B
:100D000040F2078102383C44A4EB090440EA084061
:100D10000021002E61D024FA0EF4002334607360A9
:100D2000BDE8F0878B4207D9002E54D0002186E819
:100D300021000846BDE8F087B3FA83F1002940F0AE
:100D40008E80AB4202D3824200F2FA80841A65EBB5
:100D500003050120AC46002E3FD086E81010BDE808
:100D6000F08712B90127B7FBF2F7B7FA87FEBEF199
:100D7000000F34D1EB1B3A0C1FFA87FC0121B3FBA7
:100D8000F2F8250C02FB183345EA03450CFB08F387
:100D9000AB4207D9ED1908F1FF3002D2AB4200F2A5
:100DA000D1808046ED1AA3B2B5FBF2F002FB1055DC
:100DB00043EA05440CFB00FCA44507D9E41900F103
:100DC000FF3302D2A44500F2B8801846A4EB0C040D
:100DD00040EA08409DE731463046BDE8F087CEF155
:100DE000200405FA0EF307FA0EF720FA04F83A0C7D
:100DF00025FA04F448EA0308B4FBF2F14FEA184577
:100E000002FB11441FFA87FC45EA044501FB0CF381
:100E1000AB4200FA0EF409D9ED1901F1FF3080F070
:100E20008A80AB4240F2878002393D44EB1A1FFAB8
:100E300088F5B3FBF2F002FB103345EA034500FBF3
:100E40000CF3AB4207D9ED1900F1FF386FD2AB427A
:100E50006DD902383D44EB1A40EA01418FE7C1F1F8
:100E6000200722FA07F88B4005FA01F448EA030349
:100E700020FA07FE4FEA134CFD404EEA040EB5FB84
:100E8000FCF94FEA1E440CFB19551FFA83F844EA9B
:100E9000054509FB08F4AC4202FA01F200FA01FA36
:100EA00008D9ED1809F1FF3043D2AC4241D9A9F17C
:100EB00002091D442D1B1FFA8EFEB5FBFCF00CFB36
:100EC00010554EEA054400FB08F8A04507D9E41880
:100ED00000F1FF3529D2A04527D902381C4440EA49
:100EE0000940A4EB0804A0FB02894C45C6464D46C8
:100EF00015D312D056B1BAEB0E0364EB050404FA15
:100F000007F7CB401F43CC40376074600021BDE839
:100F1000F0871846F8E69046E0E6C245EAD2B8EB1C
:100F2000020E69EB03050138E4E72846D7E740469F
:100F300091E78146BEE7014678E702383C4445E741
:100F4000084608E7A8F102083D442BE7704700BFB8
:100F500038B50E4A0E4B054618784FF47A73B3FB3A
:100F6000F0F31068B0FBF3F000F084F8044658B9D1
:100F70000F2D09D8024629464FF0FF3000F038F80F
:100F8000044B20461D6038BD012038BD08000020FC
:100F9000000000200400002008B50B4B1A6842F442
:100FA00000721A601A6842F480621A601A6842F489
:100FB00080721A60032000F009F80020FFF7C8FFD4
:100FC00004F0C0F8002008BD003C0240074AD36886
:100FD00023F4E0631B041B0C43F0BF63000243F4E3
:100FE000003300F4E0600343D360704700ED00E09D
:100FF000174B30B5DC68C4F30224C4F10703251D88
:10100000042B28BF0423062D4FF0010505FA03F336
:1010100003F1FF338CBF033C00241940A14005FAC3
:1010200004F4013C2240002842EA01024FEA021285
:10103000ADBF00F1604000F00F00064B00F56140CD
:10104000B5BFD2B2D2B21A5480F8002330BD00BF6F
:1010500000ED00E014ED00E0002808DB4209012368
:1010600000F01F0003FA00F0014B43F82200704724
:1010700000E100E00138B0F1807F0AD2064B074A58
:101080005860F02182F823100020072298601A602F
:1010900070470120704700BF10E000E000ED00E065
:1010A00090F83530022B03D0802343650120704730
:1010B0000268052380F83530136823F001031360BC
:1010C0000020704790F83500704700002DE9F04F80
:1010D00085B00B68DFF8AC81684ADFF8AC9101930A
:1010E00000234FF0010E019C0EFA03FE0EEA0406E7
:1010F000B64540F0AE804C6824F01007022F16D1A0
:101100004FEAD30A00EB8A0A03F0070BDAF8205003
:101110004FEA8B0B4FF00F0C0CFA0BFC25EA0C0C72
:101120000D6905FA0BF545EA0C05CAF820504FEA9F
:10113000430A0325D0F800B005FA0AF5ED4304F0A0
:10114000030C0BEA050B0CFA0AFC013F4CEA0B0CF2
:10115000012FC0F800C011D8876807EA050BCF68D7
:1011600007FA0AFC4CEA0B078760476827EA0E0E6D
:10117000C4F300179F4047EA0E074760C7683D4029
:101180008F6807FA0AF73D43C560E50061D54FF067
:10119000000BCDF80CB0D8F84470394D47F48047B7
:1011A000C8F84470D8F8447007F480470397039F49
:1011B00023F0030707F1804707F59C3703F0030C82
:1011C000D7F808A04FEA8C0C4FF00F0E0EFA0CFE69
:1011D000A8422AEA0E0E43D005F58065A84241D008
:1011E00005F58065A8423FD005F58065A8423DD051
:1011F00005F58065A8423BD048453BD005F5006524
:10120000A84239D005F58065A84214BF08250725F6
:1012100005FA0CF545EA0E05BD601568F74314F4B0
:10122000803F0CBF3D4035431560556814F4003FC6
:101230000CBF3D4035435560956814F4801F0CBFCA
:101240003D4035439560D568A40254BF3D403543C9
:10125000D5600133102B7FF444AF05B0BDE8F08FAB
:101260005D46D5E70125D3E70225D1E70325CFE782
:101270000425CDE70525CBE70625C9E7003C01405D
:101280000000024000380240001402400369194285
:1012900014BF0120002070470AB181617047090422
:1012A000FBE7000008B5044B5969014202D05861C0
:1012B00003F0C6FE08BD00BF003C014001684B6959
:1012C00013F480634FF0000210D06FF480634B6121
:1012D0002023026380F83D3080F83E20036C80F8C4
:1012E0003C2043F004030364012070471846704714
:1012F0002DE9F843044617469946C1F307488EB2D4
:101300002568B8F1010F0CBF6B69AB6936EA0303BE
:1013100014BF0120002008B9BDE8F8836B695A05A5
:1013200016D52B6843F400732B606FF480636B61F8
:1013300020220023236384F83D2084F83E30226C71
:1013400042F00402226484F83C300120BDE8F883B6
:101350007B1CD5D004F010FAA0EB0900874201D322
:10136000002FCDD100232022236384F83D2084F870
:101370003E30226C42F02002E4E770B504460D4690
:10138000164623685B695B0701D5002070BD2046C7
:10139000FFF794FFA8B96A1CF3D004F0EDF9801BA5
:1013A000854201D3002DECD100232022236384F851
:1013B0003D2084F83E30226C84F83C3042F020021C
:1013C0002264012070BD70B504460D4616462068A3
:1013D000436913F0400301D0002070BD4269D2067A
:1013E0000ED56FF0100242612022236384F83D2065
:1013F00084F83E30226C226484F83C30012070BDB9
:1014000004F0BAF9801BA84201D8002DDFD10023D7
:101410002022236384F83D2084F83E30226C42F081
:101420002002E8E72DE9F843089E044690461F464F
:10143000C1F307498DB22368B9F1010F0CBF5B6995
:101440009B6935EA03030CBF01230023434502D007
:101450000020BDE8F8837B1CEDD004F08DF9801BE3
:10146000874201D3002FE6D100232022236384F892
:101470003D2084F83E30226C84F83C3042F020025B
:1014800022640120BDE8F88370B504460D46164677
:1014900023685B691B0601D5002070BD2046FFF75D
:1014A0000DFFA8B96A1CF3D004F066F9801B8542D1
:1014B00001D3002DECD100232022236384F83D20AA
:1014C00084F83E30226C84F83C3042F020022264E2
:1014D000012070BD2DE9FF41154602680B9E98461C
:1014E000136843F4807313600F4600960A9B002232
:1014F0004FF001110446FFF795FF18B1012004B029
:10150000BDE8F08123680A9A184907F0FE071F61B9
:1015100020463346FFF7ECFE0028EFD12368039006
:101520005A6903929B69039332460A99039B2046AA
:10153000FFF7AAFF40B1236C042B01BF2268136898
:1015400043F400731360D9E7B8F1010F236802D1A7
:10155000EDB21D61D3E72A0A1A610A993246204684
:10156000FFF792FF0028E6D12368F1E702000100AF
:101570002DE9FF41984603680B9D16461A6842F410
:1015800080621A601A6842F480721A600F460095F1
:101590000A9B00224FF001110446FFF743FF18B1E8
:1015A000012004B0BDE8F08123682B49FFB207F0A9
:1015B000FE021A6120462B460A9AFFF799FE002880
:1015C000EED1236803905A6903929B6903932A46DC
:1015D0000A99039B2046FFF757FF40B1236C042B69
:1015E00001BF2268136843F400731360D8E7B8F1B1
:1015F000010F236825D1F6B21E612A460A992046BA
:10160000FFF742FF02460028E8D121680B6843F447
:1016100080730B60204600950A9B4FF00111FFF785
:1016200001FF0028BCD123680A9A0B4947F0010743
:101630001F6120462B46FFF75BFE003018BF0120DC
:10164000AFE7320A1A610A992A462046FFF71CFFC3
:101650000028C3D12368CEE70200010070B504461C
:1016600008B9012070BD90F83D3003F0FF021BB9AE
:1016700080F83C2003F02CF82268242384F83D30C5
:10168000136823F00103136001F052FC6568414BBD
:101690009D424DD8404B9842E3D922683F49536858
:1016A000B0FBF1F123F03F030B435360136A23F0C7
:1016B0003F03013119431162D169364B21F44F4187
:1016C0009D4221F0FF0100F1FF3048D86D00B0FBD2
:1016D000F5F00130C0F30B03042B38BF04230B4398
:1016E000D3611168206AE36921F0C00103430B4311
:1016F00013609168E068236921F40341034321F0FA
:10170000FF010B439360D168A069636921F0FF0179
:1017100003430B43D360136843F0010313600020BD
:101720002023206484F83D30206384F83E0070BD9F
:101730001B4B984295D92268184E5368B0FBF6F6B9
:1017400023F03F0333435360136A4FF496717143A0
:1017500023F03F034FF47A76B1FBF6F1A9E7A368D3
:1017600053B905EB4503B0FBF3F0431CC3F30B0384
:101770006BB143F40043B2E719236B43B0FBF3F0C2
:10178000431CC3F30B0313B143F44043A7E7012306
:10179000A5E700BFA08601007F841E0040420F0025
:1017A000FF083D002DE9FF4104461F460D469046C7
:1017B00003F0E2FF94F83D30202B064604D00225CA
:1017C000284604B0BDE8F081009019230122584951
:1017D0002046FFF727FE0028F1D194F83C30012B7A
:1017E000EDD0012384F83C3023681A68D2075EBF2D
:1017F0001A6842F001021A601A6822F400621A6044
:10180000212284F83D20102284F83E200022226408
:101810006785628D2285474AE262E26AC4F82480C5
:10182000082A04D0012A02D012F5803F04D11A6898
:1018300042F480721A6002E0226B122AF7D00096FE
:101840000A9B00224FF001112046FFF7EBFD08B183
:101850000125B5E723692268B3F5804F13D105F060
:10186000FE05156133460A9A33492046FFF740FDCD
:1018700005460028ECD1236803905A6903929B69BE
:101880000393039B44E0EB1103F0060343F0F003E2
:1018900013612A490A9A33462046FFF729FD00289A
:1018A000D6D12368EDB21D61DCE732460A992046A5
:1018B000FFF7EAFD40B1236C042B01BF22681368D7
:1018C00043F400731360C3E7636A20681A4612F892
:1018D000011B01616262628D013A92B26285228DC2
:1018E0004769511E89B27F0721850AD549B15978C8
:1018F000016102336362638D013B9BB2023A6385EF
:10190000228532460A992046FFF737FD0028D2D1BA
:10191000238D002BC9D121680A6842F400720A6045
:10192000202284F83D2084F83C3084F83E3047E79C
:10193000020010000000FFFF02000100080001008B
:101940002DE9F043044689B098460F469146109E13
:1019500003F012FF94F83D30202B054604D00227F7
:10196000384609B0BDE8F083009019230122A6494A
:101970002046FFF757FD0028F1D194F83C30012BA9
:10198000EDD0012384F83C3023681A68D0075EBF8D
:101990001A6842F001021A601A6822F400621A60A2
:1019A000222284F83D20102284F83E200022226466
:1019B000A4F82A80628D2285944AE262E26A19685C
:1019C000C4F8249041F48061082A196004D0012AE7
:1019D00002D012F5803F04D11A6842F480721A6076
:1019E00002E0226B112AF7D00095334600224FF017
:1019F00001112046FFF716FD08B10127B0E7236962
:101A0000B3F5804F236840D147F00107FFB21F6153
:101A10002B4632467E492046FFF76AFC07460028DF
:101A2000EBD1228D2368002A63D0012A74D11A6871
:101A300022F480621A6004975A6904929A690492A7
:101A4000049A1A6842F400721A60DFF8CC81238D80
:101A5000002B58D0032B00F2BA80012B77D12A46F5
:101A600031462046FFF7AFFC0028C6D12268636AE2
:101A700012691A70636A01336362238D013B238507
:101A8000638D013B9BB26385E1E74FEAE71808F0FD
:101A9000060848F0F0021A615E492B46324620469D
:101AA000FFF726FC0028A8D123685949FFB21F611F
:101AB00032462B462046FFF71BFC024600289CD1ED
:101AC00023680790596907919969079107991968DF
:101AD00041F4807119602046009533464FF00111A2
:101AE000FFF7A0FC002888D1226848F0F1031361B9
:101AF0008EE703975A6903929A690392039A1A68C8
:101B000042F400721A60202384F83D30002384F8E8
:101B10003E3084F83C3023E7022A1A680DD122F4C3
:101B200080621A601A6842F400621A6005975A6966
:101B300005929B690593059B87E742F480621A60D2
:101B400006975A6906929B690693069B7DE7022BCE
:101B5000009533464FF00002414620461AD1FFF768
:101B600061FC00287FF449AF23681A6842F40072D0
:101B70001A60626A1B691370626A531C6362238D68
:101B8000013B2385638D013B9BB2638523681B6901
:101B900053706FE7FFF746FC024600287FF42DAF35
:101BA0002368196821F480611960616A1B690B70F0
:101BB000636A009501336362238D013B2385638D46
:101BC000013B9BB26385414633462046C7E72A4620
:101BD00031462046FFF7F7FB00287FF40EAF22685E
:101BE000636A12691A70626A531C6362238D013B37
:101BF0002385638D013B9BB263852368596949073F
:101C00007FF525AFC3E700BF020010000000FFFF13
:101C10000200010008000100040001002DE9F74363
:101C2000044699460F4690460C9E03F0A5FD94F895
:101C30003D30202B054603D0022003B0BDE8F083E1
:101C40000090192301223B492046FFF7EBFB0028B7
:101C5000F2D194F83C30012BEED0012384F83C30D3
:101C600023681A68D1075EBF1A6842F001021A6041
:101C70001A6822F400621A60212384F83D30402360
:101C800084F83E30002323640A9B6362BDF82C3045
:101C90006385638D2385284BE362019500964B464F
:101CA000424639462046FFF715FC00282AD001207D
:101CB000C3E7FFF7E9FB40B1236C042B01BF2268A7
:101CC000136843F400731360F1E7636A27681A46E8
:101CD00012F8011B39616262628D218D013A92B264
:101CE00062857A69481E80B2520720850AD548B1BC
:101CF0005A783A6102336362638D013B02399BB2C9
:101D000021856385238D2A4631462046002BD0D17C
:101D1000FFF733FB0028CFD12268136843F4007328
:101D20001360202384F83D3084F83C0084F83E00A2
:101D300083E700BF020010000000FFFF2DE9F04321
:101D4000044687B099460D469046109F03F014FD57
:101D500094F83D30202B064604D00225284607B0D3
:101D6000BDE8F08300901923012277492046FFF750
:101D700059FB0028F1D194F83C30012BEDD0012320
:101D800084F83C3023681A68D0075EBF1A6842F0B6
:101D900001021A601A6822F400621A60222384F891
:101DA0003D30402384F83E30002323640E9B636261
:101DB000BDF83C306385638D2385644BE36229461F
:101DC000019600974B4642462046FFF7D1FB054659
:101DD00008B10125C2E7228D236892B902905A69A1
:101DE00002929A690292029A1A6842F400721A6088
:101DF000202384F83D30002384F83E3084F83C30C2
:101E0000ACE7012A2CD11A6822F480621A60039090
:101E10005A6903929A690392039A1A6842F400720B
:101E20001A60DFF82C81238D002BE1D0032B6ED8B4
:101E3000012B2DD1324639462046FFF7C4FA00283F
:101E4000C7D12268636A12691A70636A01336362D8
:101E5000238D013B2385638D013B9BB26385E2E7C4
:101E6000022A0ED11A6822F480621A601A6842F4BB
:101E700000621A6004905A6904929B690493049B5F
:101E8000CFE705905A6905929B690593059BC8E7C2
:101E9000022B00963B464FF000024146204619D1E6
:101EA000FFF7C0FA002894D123681A6842F4007240
:101EB0001A60626A1B691370626A531C6362238D25
:101EC000013B2385638D013B9BB2638523681B69BE
:101ED0005370BAE7FFF7A6FA024600287FF479AFFD
:101EE0002368196821F480611960616A1B690B70AD
:101EF000636A009601336362238D013B2385638D02
:101F0000013B9BB2638541463B462046C8E73246CB
:101F100039462046FFF757FA00287FF45AAF226867
:101F2000636A12691A70626A531C6362238D013BF3
:101F30002385638D013B9BB26385236859694907FB
:101F40007FF571AFC3E700BF020010000000FFFF84
:101F50000400010070477047704770477047704732
:101F60007047704770477047806B026890F83D106B
:101F700070B51468466B856B002324F48064F363AA
:101F8000EB63146043851468336524F001042B650A
:101F9000146090F83D40602CC9B208D1202280F82E
:101FA0003D2080F83E300364FFF7DDFF70BD01F097
:101FB000280128290DD1146844F001041460146824
:101FC00044F480641460036380F83D10FFF7CAFF97
:101FD00070BD202280F83D2080F83E30F6E70000FA
:101FE00090F83D2090F83E30102B10B5D2B2044648
:101FF000036805D1222A02BF196821F40061196023
:1020000002F0280128293AD10022226384F83D10E9
:102010005A6812F4006259D05A68606B22F4006268
:102020005A6090F83530012B3C4B35D00365FFF7F3
:1020300037F850B12268606B136823F00103136016
:10204000202384F83D30036D984794F83D30226C8E
:102050005207DBB212D5282B10D12268536823F423
:10206000E06353602E4BE36220220023236320466B
:1020700084F83D2084F83E30FFF771FF10BD5968A9
:10208000090504D4602A1CBF202284F83D200022C8
:10209000226384F83E20BBE7A06B0365FFF700F8DE
:1020A0000028D2D023685A69520605D5626A1B6996
:1020B0001370636A013363622268A06B136823F0B4
:1020C00001031360202384F83D30BCE794F83D10F1
:1020D000602915D1202184F83D1022645A695006E8
:1020E00005D5626A1B691370636A013363622268F3
:1020F000136823F0010313602046FFF734FFA4E7C1
:102100005A69510605D5626A1B691370636A013307
:1021100063622046FFF726FF97E700BF691F0008AC
:102120000000FFFF036830B55A68C56A90F83E109A
:102130000446C9B290F83D0010298DB0C0B202D05B
:10214000402940F0B6829869596911F0010F07D112
:10215000B5F52A0F02D0B5F12A4F52D10DB030BDDE
:1021600095054ED5E26AB2F52A0F0CD10122E26242
:1021700094F83E20402A11D1226D52B9626C02F0CF
:10218000FE021A61EAE7E26AB2F12A4FF0D10822B0
:10219000EDE7626C42F00102D2B2F2E72269B2F5D9
:1021A000804F1BD194F83D20212A626C12D102F09D
:1021B000FE021A61626B12B9A16B0029CED0D26BFC
:1021C0001AB9A26BD26B002AC8D05A6842F40062D6
:1021D0005A60C3E742F00102D2B2EAE7226D32B997
:1021E000626CD21102F0060242F0F002C9E7226DE1
:1021F000012AB3D1626CD21102F0060242F0F10260
:10220000BFE70D0703D5950501D5626CE4E78D079F
:1022100040F1E180950540F1DE8094F83E10E26ADD
:10222000256B94F83D002228C9B240F0CC80206D87
:1022300040B9402906D101905A6901929B690193E6
:10224000019B8BE7216D81B92069B0F5404F0CD11E
:1022500002915A6902929A690292029A1A6842F4A9
:1022600080721A60236D013328E0618D89B251B903
:1022700003915A6903929A690392039A1A6842F485
:1022800000721A6019E0618D89B201294AD112F5F4
:10229000803F1CD11A6822F480621A605A6812F4D6
:1022A00000620DD01A6822F480621A600022049243
:1022B0005A6904929B690493049B002323654DE7AC
:1022C00005925A6905929A690592059AD6E7082AF5
:1022D0001CD0202A1AD0122D0DD1012A16D11A682D
:1022E00022F480621A60002206925A6906929B6963
:1022F0000693069BE1E7102AF1D88E4921FA02F2F3
:10230000D007ECD51A6842F48062EBE71A6822F431
:1023100080621A60002207925A6907929A690792AE
:10232000079AABE7618D89B202292CD1102A03D814
:102330008049D140C90722D4196821F4806119600D
:10234000196841F40061196059680D050FD512F53F
:10235000803F08D0511E1F299DBF774ACA40D243F3
:102360000122D00703D45A6842F480525A600022F6
:1023700008925A6908929B690893089B9DE719681F
:1023800041F48061DFE7196841F4806119605968A0
:10239000090510D512F5803F09D0013A1F2A9DBFCB
:1023A000654921FA02F2D2430122D20703D45A68C6
:1023B00042F480525A60002209925A6909929B693C
:1023C0000993099B79E700220A925A690A929B694C
:1023D0000A930A9BC2E610F0040F586800F0AE8022
:1023E00005053FF5BBAE11F0800F01F0040169D087
:1023F000500567D5002965D194F83D20258D94F8C6
:102400003E10E06AD2B2C9B2C5B9212A18D1082853
:1024100078D0202876D010F5803F73D05A6822F407
:10242000E0625A6011232363002384F83E302023A6
:1024300084F83D302046FFF78DFD8FE6212A05D038
:1024400040297FF48BAE222A7FF488AE628D92B24F
:102450001AB95A6822F48062BAE694F83E20402AFB
:1024600026D1226D62B9E26C012AA26C04D1D2B2EB
:102470001A61236D023321E7C2F307221A61F1E6E4
:10248000226D012A02D1A26CD2B2F7E7226D022A94
:102490007FF464AE94F83D20222A04D11A6842F4F5
:1024A00080721A605AE694F83D20212A7FF456AED5
:1024B000626A12F8011B19616262638D013B9BB273
:1024C00063854BE600293FF449AE92057FF546AEA1
:1024D000E16A94F83D20212A7FF440AE628D92B2E9
:1024E000002AE5D108290DD020290BD011F5803F15
:1024F00008D0596821F4E06159601123236384F8FE
:102500003E2094E75A6822F4E0625A601A6842F466
:1025100000721A6000232022236384F83D2094F87F
:102520003E2084F83E30402A204684D1FFF718FD33
:1025300014E600BF140001008180008005053FF50E
:102540000DAE11F0400F01F0040148D0500546D502
:10255000002944D194F83D20222A7FF4FFAD628DFA
:1025600092B2032A14D9626A1B691370636A013339
:102570006362638D013B9BB26385638D9BB2032BCA
:102580007FF4ECAD2268536823F480635360E5E583
:10259000E06A02283FF4E2AD012A3FF6DFAD1A6897
:1025A00022F480621A605A6822F4E0625A60626A19
:1025B0001B691370636A01336362638D013B9BB2D5
:1025C0006385202384F83D3094F83E3084F83E1033
:1025D000402B68D121632046FFF7C3FCBEE50029EC
:1025E0003FF4BCAD92057FF5B9ADE26A618D89B269
:1025F0000429616A09D15A6822F480625A601B6911
:102600000B70636A0133636257E7608D80B2032801
:102610000CD15868042A20F480605860EFD0022A58
:10262000EDD01A6822F480621A60E8E7608D80B20B
:102630000228E4D1012A01D0102A28D11A6822F4F4
:1026400080621A601B690B70626A531C6362638D3F
:10265000013B9BB2638523681B695370636A2268E0
:1026600001336362638D013B9BB26385536823F43E
:1026700040735360202384F83D3094F83E30402B63
:102680004FF0000384F83E300DD12363A3E7042A02
:1026900001D0022A03D11A6842F48062D1E71A6895
:1026A00042F40072CDE7122323632046FFF753FC68
:1026B00054E5216C21B35969002511F0020F29D08E
:1026C00012F4007F26D0226C02B19D6994F83D205F
:1026D00002F02802282A16D15A6822F480625A6031
:1026E00085F004012B064FF00003C1F3800154BFB5
:1026F000A289228B84F83C302046FFF72FFC2DE581
:102700009D695969D9E76FF002025A61002384F884
:102710003C3023E5CD0640F1AF80950540F1AC801B
:1027200094F83D505A6822F4E0625A6000220B92FD
:102730005A690B921A6842F001021A600B9A1A68E1
:1027400022F480621A605A681105EDB220D505F0B6
:10275000F702222A48D1A06B0268526892B26285C1
:10276000628D92B21AB1226C42F0040222645A685D
:1027700022F400625A60FEF7A5FC012808D0A06B85
:10278000784B0365FEF78CFC10B1A06B036D984786
:10279000638D9BB213B323685A69520709D5626AE5
:1027A0001B691370636A01336362638D013B9BB2E3
:1027B000638523685A69500609D5626A1B691370DC
:1027C000636A01336362638D013B9BB26385638DF2
:1027D0009BB21BB1236C43F004032364236C03B34B
:1027E0002046FFF7FDFBB9E4606B0268526892B2C5
:1027F0006285628D92B21AB1226C42F004022264A8
:102800005A6822F400625A60FEF75CFC0128BFD0CF
:10281000606B544B0365FEF743FC0028B8D0606B37
:10282000B4E72A2D06D12363282384F83D302046BF
:10283000FFF793FB94F83D30282B0CD14A4BE36211
:10284000202200232363204684F83D2084F83E3074
:10285000FFF785FB82E4236B222B02D0222D7FF42D
:102860007DAC00232022236384F83D2084F83E3091
:102870002046FFF772FB71E400F0F700212801F019
:10288000040535D1090627D5510525D525BB94F872
:102890003D10628D92B2C9B2002A3FF45FAC626A09
:1028A00012F8015B1D616262628D013A92B262852B
:1028B000628D92B2002A7FF451AC29297FF44EAC8C
:1028C0005A6822F480625A602823206384F83D30DD
:1028D0002046FFF741FB41E4002D3FF43FAC950556
:1028E0007FF53CAC628D92B2002A7FF4E1AD35E415
:1028F000480627D5510525D525BB94F83D20618D87
:1029000089B2D2B200293FF429AC616A1B690B700D
:10291000636A01336362638D013B9BB26385638DA0
:102920009BB2002B7FF41AAC2A2A7FF417AC2268E2
:10293000536823F48063536022232363282384F89D
:102940003D3095E7002D3FF409AC92057FF506ACCC
:10295000628D92B2002A3FF401AC626A1B69137067
:102960004FE600BF691F00080000FFFFF8B50368CD
:102970005F695E6817F48075044606D016F48075AA
:102980001EBF6FF480725A610125B90506D5F205A4
:1029900042BF6FF4007245F002055A61780537D5E1
:1029A000F10535D594F83EE0618D94F83D20206B1B
:1029B000BEF1200F89B2D2B25AD1002958D102F00B
:1029C000F701212903D0282A52D1212850D194F887
:1029D0003D20E16A0829D2B201D020292AD1282A33
:1029E00028D12C4AE2625A6822F4E0625A606FF4FD
:1029F00080625A611A6822F480621A6000232022E1
:102A00002363204684F83D2084F83E30FFF7A7FA80
:102A10003A053CD5F3053AD523686FF4006245F0DA
:102A200008055A61236C1D4325642046BDE8F84023
:102A3000FFF7D6BA212A17D11649E1622263202274
:102A400084F83D20002284F83E205A6822F4E06297
:102A50005A606FF480625A611A6822F480621A60C8
:102A60002046FFF779FAD3E76FF480625A61CFE727
:102A70006FF480625A6194F83E20102A04BF1A68ED
:102A800042F4007245F0040508BF1A60C0E7002D4B
:102A9000C8D1F8BD0000FFFF006C70472DE9F3417D
:102AA000044618B9012002B0BDE8F0810368DD07D3
:102AB00010D42368980758D423681A0700F19A8025
:102AC00023685B0700F1B880A269002A40F01981F1
:102AD0000020E8E7A64B9A6802F00C02042A07D00F
:102AE0009A6802F00C02082A0AD15B68590207D5DD
:102AF0009F4B1B689A03DCD56368002BD9D1D1E7C3
:102B000063689B4DB3F5803F11D12B6843F480334C
:102B10002B6002F031FE964D06462B689B03C8D40D
:102B200002F02AFE801B6428F7D90320BBE7B3F527
:102B3000A02F04D12B6843F480232B60E5E72A689B
:102B400022F480322A602A6822F480222A60002B34
:102B5000DFD102F011FE06462B689F03A9D502F0D3
:102B60000BFE801B6428F7D9DFE7814B9A6812F0CF
:102B70000C0F07D09A6802F00C02082A11D15B688A
:102B80005E020ED47A4B1A68950702D5E268012AD4
:102B900088D11A68216922F0F80242EAC1021A605B
:102BA0008AE7E268734BB2B101221A6002F0E4FDD9
:102BB0006F4D06462B68980707D52B68226923F0CE
:102BC000F80343EAC2032B6076E702F0D5FD801BD1
:102BD0000228EFD9A9E71A6002F0CEFD644D06463F
:102BE0002B6899077FF568AF02F0C6FD801B0228AD
:102BF000F6D99AE76269604B7AB101221A6002F055
:102C0000BBFD5B4D06466B6F9F073FF559AF02F06A
:102C1000B3FD801B0228F6D987E71A6002F0ACFDED
:102C2000534D06466B6F98077FF54AAF02F0A4FD3F
:102C3000801B0228F6D978E74D4B1A6C12F08052AF
:102C400028D101921A6C42F080521A641B6C03F076
:102C500080530193019B0126484D2B68D9051BD554
:102C6000A368434D012B27D12B6F43F001032B6742
:102C700002F082FD3E4D074641F288382B6F9B07DC
:102C800039D5002E3FF420AF394A136C23F080531E
:102C9000136419E70026DFE72B6843F480732B6089
:102CA00002F06AFD07462B68DA05D9D402F064FD0C
:102CB000C01B0228F7D938E7052B04D12B6F43F04E
:102CC00004032B67D0E72A6F22F001022A672A6FDC
:102CD00022F004022A67002BCAD102F04DFD41F216
:102CE000883807462B6F9807CBD502F045FDC01BEF
:102CF0004045F7D919E702F03FFDC01B4045BDD95B
:102D000013E71B4DAB6803F00C03082B3FF4CAAE6E
:102D10001B4E0023022A336034D102F02DFD0746FA
:102D20002B6899011ED4226AE3691343626A43EA5D
:102D30008213E26A43EA0263A26A0D4C5208013A26
:102D400043EA02436B600123336002F015FD054640
:102D500023689A013FF5BCAE02F00EFD401B02282D
:102D6000F6D9E2E602F008FDC01B0228D8D9DCE65D
:102D70000038024000004742800E47420070004089
:102D80006000474202F0F8FC04462B689B017FF587
:102D90009FAE02F0F1FC001B0228F6D9C5E600BF89
:102DA000134908B58B6803F00C03042B03D0082BE0
:102DB00003D0104808BD104808BD4A684B684968F0
:102DC00013F4800314BF0C480A48C1F3881118BFDC
:102DD000002302F03F02A1FB0001FDF731FF044B8D
:102DE0005B68C3F3014301335B00B0FBF3F008BD44
:102DF000003802400024F40040787D012DE9F041C4
:102E00000D46044610B90120BDE8F081444B1A6814
:102E100002F00F028A4228D321688F072DD4C807F9
:102E200040D43F4B1A6802F00F02954266D32268E5
:102E300051076CD4130707D53A4A2169936823F4E4
:102E4000604343EAC1039360FFF7AAFF354B364A5C
:102E50009B68C3F30313D35CD840344B1860002045
:102E6000FEF776F80020BDE8F081CAB21A701B6840
:102E700003F00F039942C6D1CEE72A4B11F0040F9D
:102E80001EBF9A6842F4E0529A600E0742BF9A68E9
:102E900042F460429A609A68A06822F0F00202430D
:102EA0009A60BCE762681F4B012A1DD11B6813F4AE
:102EB000003FA8D01B4EB36823F003031343B36055
:102EC00002F05AFC41F288380746B368626803F0A2
:102ED0000C03B3EB820FA4D002F04EFCC01B4045A4
:102EE000F3D90320BDE8F081911E01291B6802D8A7
:102EF00013F0007FDDE713F0020FDAE7EAB21A7091
:102F00001B6803F00F039D427FF47DAF8FE70549F7
:102F1000E0688B6823F4E05303438B608AE700BFCB
:102F2000003C0240003802409F9200080800002048
:102F3000044B054A9B68C3F38223D35C034A1068A1
:102F4000D840704700380240AF92000808000020C7
:102F5000044B054A9B68C3F34233D35C034A1068B1
:102F6000D840704700380240AF92000808000020A7
:102F70000368DA6822F49072DA605A6922F001027A
:102F80005A61202380F83A30704700002DE9F0475D
:102F90000668C2683369C16923F44053134333613F
:102FA000044683680069F2680343606922F41642AC
:102FB000034322F00C020B431343F3607369A269CD
:102FC00023F440731343B1F5004F73617A4B7CD106
:102FD0009E4203D003F580639E4244D1FFF7B8FFC1
:102FE000192505FB00F360684FF064094000B3FB4E
:102FF000F0F3B3FBF9F34FEA0318FFF7A9FF636897
:1030000068435B00B0FBF3F7FFF7A2FF6368684318
:103010005B00B0FBF3F3B3FBF9F309FB1373DB00C5
:103020003233B3FBF9F35B0003F4F877FFF790FF5B
:10303000626868435200B0FBF2FAFFF789FF6368E9
:1030400068435B00B0FBF3F3B3FBF9F309FB13A395
:10305000DB003233B3FBF9F303F0070343443B4493
:10306000B360BDE8F087FFF763FF192505FB00F3A8
:1030700060684FF064094000B3FBF0F3B3FBF9F371
:103080004FEA0318FFF754FF636868435B00B0FB27
:10309000F3F7FFF74DFF636868435B00B0FBF3F3A2
:1030A000B3FBF9F309FB1373DB003233B3FBF9F322
:1030B0005B0003F4F877FFF73BFF62686843520058
:1030C000B0FBF2FAFFF734FFB9E79E4202D03B4B68
:1030D0009E4240D1FFF73CFF676819254FF0640915
:1030E00005FB00F3BF00B3FBF7F3B3FBF9F31F01DC
:1030F000FFF72EFF636868439B00B0FBF3F8FFF710
:1031000027FF636868439B00B0FBF3F3B3FBF9F35D
:1031100009FB13831B013233B3FBF9F303F0F0080F
:10312000FFF716FF626868439200B0FBF2FAFFF700
:103130000FFF636868439B00B0FBF3F3B3FBF9F345
:1031400009FB13A31B013233B3FBF9F303F00F03A5
:1031500043EA080383E7FFF7EBFE676819254FF0A2
:10316000640905FB00F3BF00B3FBF7F3B3FBF9F30E
:103170001F01FFF7DDFE636868439B00B0FBF3F8B7
:10318000FFF7D6FE636868439B00B0FBF3F3B3FB25
:10319000F9F309FB13831B013233B3FBF9F303F09B
:1031A000F008FFF7C5FE626868439200B0FBF2FAD0
:1031B000FFF7BEFEBDE700BF001001400014014054
:1031C000F8B504460E4617461D4621680B6836EAD8
:1031D000030301D10020F8BD6B1CF7D095B923681B
:1031E000DA6822F4D072DA605A6922F001025A6178
:1031F000202384F8393084F83A30002384F83830BA
:103200000320F8BD02F0B8FAC01B8542DDD2E6E724
:1032100010B5044640B390F8393003F0FF021BB9F3
:1032200080F8382002F0B2FB2268242384F8393079
:10323000D36823F40053D3602046FFF7A7FE23682A
:103240001A6922F490421A615A6922F02A025A61DC
:10325000DA6842F40052DA6000202023E06384F848
:10326000393084F83A3010BD012010BD2DE9F0410D
:103270001F4690F83930202B04460D4690464FD11A
:1032800000294AD0002A48D090F83830012B47D086
:10329000012380F838300023C363212380F83930BC
:1032A00002F06AFAA4F824800646A4F82680E38C8B
:1032B0009BB26BB93B46324640212046FFF780FF68
:1032C000B0B9202384F8393084F83800BDE8F081A3
:1032D000E38C013B9BB2E384A368B3F5805F324685
:1032E0003B464FF0800120460ED1FFF769FF10B139
:1032F0000320BDE8F0812B882268C3F308035360E4
:10330000236943B90235D2E7FFF75AFF0028EFD10E
:1033100023682A785A600135C9E70120BDE8F081A9
:103320000220BDE8F08190F83A30202B20D1E9B19D
:10333000E2B190F83830012B1AD0C2858285002383
:103340002222C36380F83A2002688162D16880F843
:10335000383041F48071D160516941F0010151610F
:10336000D16841F02001D1601846704701207047B4
:10337000022070477047704790F83A30222B10B502
:1033800036D1836801690268B3F5805F836A23D10F
:103390005268E9B9C2F3080223F8022B8362C48D94
:1033A000013CA4B2C4858CB90368DA6822F020021B
:1033B000DA60DA6822F48072DA605A6922F0010277
:1033C0005A61202380F83A30FFF7D5FF002010BD66
:1033D000D2B223F8012BE1E721B9591C526881626E
:1033E0001A70DCE75268591C816202F07F02F7E72D
:1033F000022010BD7047000003681A68D96870B5D4
:10340000160704465D6907D196065AD58D0658D52C
:10341000BDE87040FFF7B0BF15F0010502D111F40F
:10342000907F4ED0D30705D5CE0542BFE36B43F066
:103430000103E363500704D51DB1E36B43F00203BE
:10344000E363930704D51DB1E36B43F00403E36327
:10345000160704D51DB1E36B43F00803E363E36B88
:10346000002B66D0950604D5880602D52046FFF7C6
:1034700083FF23685D69E26B1107204602D415F0D3
:1034800040051AD0FFF774FD23685A69520610D51B
:103490005A69606B22F040025A6150B1254B0365B6
:1034A000FDF7FEFD002844D0606BBDE87040036D61
:1034B00018472046FFF79EFF70BDFFF79BFFE563AF
:1034C00070BD160627D50D0625D594F83920212A7A
:1034D0002FD1A268B2F5805F226A17D11188C1F39B
:1034E00008015960216979B902322262E28C013AFD
:1034F00092B2E284EAB9DA6822F08002DA60DA682D
:1035000042F04002DA6070BD0132EEE7511C2162E8
:1035100012785A60EAE750060BD54A0609D5DA68F0
:1035200022F04002DA60202384F839302046FFF789
:1035300021FF70BD3935000808B5806B0023C385B5
:10354000C384FFF757FF08BD7FB506AA012302F821
:10355000011D8DE80C00024605480293AE2100686B
:10356000FEF75CFBB0FA80F0400907B05DF804FBA1
:10357000F80D00201FB501238DE80A000246064819
:103580000293AE210068FEF7D9FBB0FA80F0400943
:1035900005B05DF804FB00BFF80D002073B50E46C2
:1035A0000DF1070105461446FFF7E4FF012813D18A
:1035B0009DF80710B04004F0010421EA0001B44076
:1035C0002143C9B228468DF80710FFF7BDFF431EFF
:1035D0005842584102B070BD0020FBE7F0B587B0FB
:1035E00000260623066001270E60054601931D484C
:1035F000029704AB00930C463B460722AE210068BD
:10360000FEF79CFB60BB2B689DF8102003EB024388
:103610002B602B689DF8112003EB02232B602A6896
:103620009DF8123013442B6023689DF8132003EBA0
:103630000243236023689DF8142003EB02232360D8
:1036400022689DF81530134423602B68C3F31103DF
:103650002B602368C3F311032360384607B0F0BD25
:103660003046FBE7F80D0020024607210220FFF755
:1036700095BF024606210220FFF790BF37B5002410
:10368000054604700DF107012046FFF773FF01287E
:1036900001BF9DF807302A7823F01E03134314BF9F
:1036A00020462B7003B030BDF7B50DF10700FFF7D2
:1036B000E5FF0128F9D19DF90730002B05DB9DF8C6
:1036C00007305B0636D403B0F0BD324D324E1124C4
:1036D0002F462868314B296803EB800006EB8101F7
:1036E000FFF77CFF0128F4D12D4B1A78D2B12A685C
:1036F00056F822104CF24F32914201D800221A7033
:103700003B684FF496710133B3FBF1F201FB1233C6
:10371000244A3B601368013C013314F0FF0413603A
:10372000D7D1CCE72A6856F82220B2F5C86F88BFF7
:103730001870E5E7174C184D26462068174B21688E
:1037400003EB800005EB8101FFF748FF0128F4D16E
:10375000134B1A78B2B1226855F822104CF24F324E
:10376000914201D800221A7033684FF496710133E8
:10377000B3FBF1F201FB12330A4A336013680133E1
:103780001360A0E7226855F82220B2F5C86F88BF01
:103790001870E9E7000E0020080E0020C01200207B
:1037A000FD0D0020F40D002008B500F01F010420DD
:1037B000FFF7CAFE431E5842584108BD08B500F045
:1037C0001F010520FFF7C0FE431E5842584108BDA7
:1037D00008B500F01F010620FFF7B6FE431E584251
:1037E000584108BD13B504460DF107010820FFF745
:1037F000C1FE012810D19DF8071021F0070141EA10
:103800004411C9B208208DF80710FFF79DFE431E32
:103810005842584102B010BD0020FBE700F0010201
:1038200004210820FFF7BABE13B504460DF10701C5
:103830000820FFF79FFE012817D1202C28BF202445
:10384000112C9DF8071038BF112421F00F01C4F18D
:1038500020042143C9B208208DF80710FFF774FE39
:10386000431E5842584102B010BD0020FBE707B587
:10387000FF23402109208DF80730FFF765FE01285E
:1038800003D0002003B05DF804FB0DF1070109200F
:10389000FFF770FE0128F4D19DF807305B06F4D4E1
:1038A000F0E713B504460DF107010920FFF762FEAA
:1038B000012810D19DF8071004F0070421F007013A
:1038C000214309208DF80710FFF73EFE431E5842A2
:1038D000584102B010BD0020FBE713B504460DF1BE
:1038E00007010A20FFF746FE012811D19DF8073095
:1038F000610123F0030301F0600119430A208DF8F0
:103900000710FFF721FE431E5842584102B010BD78
:103910000020FBE713B504460DF107010A20FFF76D
:1039200029FE012811D19DF80730A10023F00703DB
:1039300001F01C0119430A208DF80710FFF704FE5F
:10394000431E5842584102B010BD0020FBE713B59A
:1039500004460DF107010A20FFF70CFE012810D1E3
:103960009DF8071004F0030421F0030121430A200D
:103970008DF80710FFF7E8FD431E5842584102B08A
:1039800010BD0020FBE708B501460C20FFF7DCFD69
:10399000431E5842584108BD08B501460D20FFF7A7
:1039A000D3FD431E5842584108BD0000014B186822
:1039B000704700BF040E002030B52E4C237885B030
:1039C000032B19D8DFE803F0021A2B4D2A4A0023F3
:1039D00013602A4A13602A4A12786AB1294A13608E
:1039E000294B1A68294B24201A60FFF7CCFF2420AA
:1039F000FFF7D2FF0123237005B030BD204B1B78A9
:103A00002BB1204B1B68FA2BF6D90223F3E70020D9
:103A1000FFF7B9FF0120FFF7BFFF0023EBE7184BCB
:103A20001B78002BF3D0194D194A0392124A2B68C8
:103A30000292184A0192114A00929BB2FA22164948
:103A4000164800F091FB2B684FF496713233B3FBAC
:103A5000F1F201FB12332B600A4B00221A600323A0
:103A6000C9E7074B1B78002BD1D0064B1B68322BC4
:103A7000CAE700BFFC0D0020040E002074170020D0
:103A8000FD0D0020F40D0020000E0020BC120020CF
:103A900070170020B8120020C0120020080E00206D
:103AA0003C4B13B51860FFF7E2FE012805D03A48F9
:103AB00002F0B8FD002002B010BD0DF1070100209A
:103AC000FFF758FD012801D03448F1E70020FFF747
:103AD0006BFE012801D03248EAE70020FFF76EFEB6
:103AE000012801D02F48E3E70020FFF771FE0128ED
:103AF00001D02D48DCE70020FFF774FE012801D03B
:103B00002A48D5E70020FFF789FE012801D0284880
:103B1000CEE71120FFF788FE012801D02548C7E72E
:103B20000320FFF7BEFE012801D02348C0E7FFF7BE
:103B3000D4FE012801D02148BAE70020FFF7EAFEB1
:103B4000012801D01E48B3E70320FFF700FF01283A
:103B500001D01C48ACE70020FFF715FF012801D079
:103B60001948A5E7FFF718FF012801D017489FE77C
:103B7000FFF77AFD012801D0154899E7FFF779FD95
:103B800001284FF0000401D0124891E7124B1C703D
:103B900091E700BFF80D0020888F0008978F00087C
:103BA000A88F0008C28F0008DF8F0008F88F000878
:103BB00015900008319000084E9000085F900008B2
:103BC000759000088D900008A8900008C490000827
:103BD000E090000801910008FC0D00207FB50C4624
:103BE000182342F0D001012684F8B53084F8B410CF
:103BF0000DF10B0300967522054601F077FA9DF84A
:103C00000B30712B40F0F08000236B2294F8B4103D
:103C1000284601F057FA642001F096FD33466B22E6
:103C200094F8B410284601F04DFAC82001F08CFD3C
:103C300004231A2294F8B410284601F043FA002312
:103C4000192294F8B410284601F03CFA94F8B41004
:103C500000960DF10B031B22284601F047FA9DF850
:103C60000B3094F8B41023F01A0343F018031B220E
:103C700028468DF80B3001F025FA94F8B410009620
:103C80000DF10B031C22284601F030FA9DF80B3091
:103C900094F8B41003F0E7031C2228468DF80B308B
:103CA00001F010FA94F8B41000960DF10B031D22E8
:103CB000284601F01BFA9DF80B3094F8B41023F05D
:103CC0000F0343F003031D2228468DF80B3001F04B
:103CD000F9F92223372294F8B410284601F0F2F9BA
:103CE0003346382294F8B410284601F0EBF900234B
:103CF0000A2294F8B510284601F0E4F90A2001F0F0
:103D000023FD0F230A2294F8B510284601F0DAF9B2
:103D10000A2001F019FD0323102294F8B510009336
:103D2000284603AB01F0E2F99DF80C00803807EE5D
:103D3000900AF8EEE77A17EE900AFCF705FC0022ED
:103D40002A4BFCF755FC0022294BFCF79FFAFCF7A5
:103D500027FF60649DF80D00803807EE900AF8EEAA
:103D6000E77A17EE900AFCF7EFFB00221F4BFCF7F7
:103D70003FFC00221E4BFCF789FAFCF711FFA06400
:103D80009DF80E00803807EE900AF8EEE77A17EEFD
:103D9000900AFCF7D9FB0022144BFCF729FC002207
:103DA000134BFCF773FAFCF7FBFE00230A2294F88E
:103DB000B510E064284601F085F90A2001F0C4FC42
:103DC00016230A2294F8B510284601F07BF90A2040
:103DD00001F0BAFC4FF06253A363064BE363064B5A
:103DE0002364002004B070BD0220FBE70000703F98
:103DF0000000F03F00007A3D00E0BF3F1FB5062302
:103E00000C463B2291F8B410009302AB01F06EF91E
:103E10009DF808309DF809109DF80B209DF80C00C6
:103E2000D4ED0E6A41EA032109B29DF80A30A1845B
:103E300007EE901A42EA0322B8EEE77A9DF80D30B9
:103E400012B243EA002327EE267A07EE902A1BB22D
:103E500084ED007AB8EEE77A07EE903AF8EEE77A6A
:103E600027EE267A67EEA67AE284238584ED017A2E
:103E7000C4ED027A04B010BD1FB506230C464322E0
:103E800091F8B410009302AB01F030F99DF80830BE
:103E90009DF8091094ED0F6A9DF80B209DF80C0019
:103EA000DFED186A41EA032109B207EE901A9DF886
:103EB0000A306185B8EEE77A42EA032227EE067AF5
:103EC0009DF80D3012B243EA002327EE267A07EE62
:103ED000902A1BB284ED037AB8EEE77A07EE903AA7
:103EE000F8EEE77A27EE067A67EE867A27EE267AEC
:103EF00067EEA67AA285E38584ED047AC4ED057A9F
:103F000004B010BD35FA8E3C30B587B001230222D3
:103F10000C4691F8B51000930DF10F03054601F022
:103F2000E5F89DF80F30DA074AD50723009394F897
:103F3000B51004AB0322284601F0D8F89DF81630DE
:103F40001B073DD49DF811309DF81010D4ED106A78
:103F50009DF812209DF8150041EA032109B207EEF1
:103F6000901A9DF813302186B8EEE77A42EA0322D0
:103F7000D4ED117A9DF8143027EE267A12B227EE8E
:103F8000277A07EE902A84ED067AB8EEE77A43EABC
:103F90000023D4ED127A628627EE267A1BB227EE32
:103FA000277A07EE903AF8EEE77A84ED077A67EE23
:103FB000A67A94ED137AA38667EE877AC4ED087A21
:103FC00007B030BD1FB5012391F8B41000933A2219
:103FD0000DF10F0301F08AF89DF80F00C04300F0C7
:103FE000010005B05DF804FB2DE9F0430024814693
:103FF0000C60012503F1FF3C654501DBBDE8F08362
:10400000079C52F82560A6424FEA850705F1010496
:1040100022DD174457F8047CBE421DDD9C42A4EB10
:10402000050E274605D152F82440A64209DC3D463C
:10403000E2E752F82400864204F10108F3D1444635
:10404000ECE70C680E2CF2DC661C0E6049F824507C
:104050000EF101046719EAE72746E8E7F0B5012306
:1040600004468B4200DBF0BD54F8046F1A46254627
:1040700055F8047CBE4203DA013A45F80479F7D1D9
:1040800040F822600133ECE72DE9F04394460D46F9
:104090000123634501DBBDE8F08355F8049F1C460E
:1040A00000EB89082E46D8F8002056F8047C964686
:1040B00050F82720964503DD013C46F80479F2D1FB
:1040C00041F824900133E4E72DE9F84304461F4604
:1040D00010460D460A682146FFF7D6FF201F4FF015
:1040E000FF326FF0404EC7F1000C29688A4204DBB2
:1040F0002046BDE8F843FFF7B1BF013271442A60A2
:1041000004EB8101064602F1FF388E4201D10430F2
:10411000EBE7B8F1FF3F18BFD0F8009056F8043F26
:1041200008BFC146A3EB0903BB4201DC6345ECDADF
:10413000D5F8009009F101032B60336844F8293069
:10414000E3E7F7B5089F009705460C46FFF74CFFDD
:10415000099B2846FFF7B8FF22680A9B9A42D4BF02
:104160002260236003B0F0BD2DE9F04F8B460021A3
:1041700080461746BBB01E461A4608464FF4967452
:10418000B942C0F2B280CA4DB0FBF7F200214FF441
:104190009674B942C0F2B380C54C042104F576721E
:1041A000254695E809000344A8680344E8680344E9
:1041B00093FBF1F345F8043BAA42F2D1BC49DFF886
:1041C000F4E2002351F8042F51F8040C121A4EF8AF
:1041D00023200133F52BF5D1B64B022003F5747182
:1041E0001A6853F804EF9942724492FBF0F243F8D4
:1041F000042CF5D1002140F27A4C00231A46AE4837
:1042000001EB030A30F813E0AA48013350F82AA062
:10421000052B0AFB1E22F2D192FBFCF240F8212072
:104220000131EF29E9D10022134650F82310013360
:1042300081EAE17EAEEBE17EF52B7244F5D10521FA
:104240000291082192FBF3F20191009207A9994A89
:104250002BA8FFF776FFDDF81CE0BEF1010F4FF051
:1042600000035ADD2BAA9C46012052F8041F52F885
:10427000043CC91A8C44411C8E454CD19CFBF0F384
:1042800007EE903ADFED8D6A469BF8EEE77A86EE10
:10429000A77AF6EE007A67EE277AFDEEE77AC3EDAD
:1042A000007A0123479A0DA913702BA800237345A8
:1042B00037DB7F49824800234FF49672BB4237DBDD
:1042C0000023DFF8ECB11A460DF134080DF1700A45
:1042D00072453CDB012B54DC449A7A4B136000237B
:1042E000459A13703BB0BDE8F08F58F82250013268
:1042F00028440131B2FBF4F504FB152240E758F8DD
:1043000023000133801A45F82100B3FBF4F001319A
:1043100004FB10333DE70846A7E74699694A0A605F
:10432000C0E750F82320023241F823200133BEE7D2
:1043300058F826C041F823C05BF826C040F823C0D7
:1043400001360133B6FBF2FC02FB1C66B6E758F8F7
:104350002210881FE92808D8481F4FF080770531C0
:104360000126884203D106B901330132B0E75BF878
:1043700020C06745C2BF4AF82200674600260130C8
:10438000EFE74F49042694E80500A76802443A4441
:10439000E7683A4492FBF6F244F8042B91E80500F2
:1043A0008F6802443A44CF68A5423A4492FBF6F241
:1043B00041F8042BE7D10022089209920A920B924D
:1043C0000C921CAD55F82210FA2985DC013293427B
:1043D000F8D10024013B364E394F0593A446059B86
:1043E0009C451DDB214608A86410FFF737FE012C11
:1043F0003AAA4FEA84037BDD02EB840454F8C82C0C
:1044000054F8CC3C1344022293FBF2F3DA1EB42A94
:104410003FF662AF2C4AD35C449A136001235FE7F6
:1044200055F804EF55F8042CAEEB0208B8F10A0F6A
:104430000CF1010CD3DD4FF07F4310461946704557
:1044400044DB56F822A056F82E00A0EB0A0B049885
:10445000801A00FB0BF090FBF8F0824456F829001C
:10446000A0EB0A0A01FB0AF1C9110029B7DD042CEF
:10447000B5DC57F8220057F82EE0A9EB0202AEEBAC
:10448000000E02FB0EF292FBF8F2024457F82900EC
:10449000801A4343DB11A2D03AAA02EB840E6422B5
:1044A0005343013493FBF1F14EF8C81C97E700BF6A
:1044B000D4050020FC010020269100080080BB45A7
:1044C000BC09002019FCFFFF649100084FEA800A34
:1044D00056F820B05AF807A05B45ACBF9B46049045
:1044E0005145ACBF8A4681465B4601305146A6E73E
:1044F000134453F8C83C89E7F0B58DB0142200216D
:1045000007A801F013FB00244D4B01941A6B4D4F8B
:104510004D4D42F010021A631A6B02F01002019224
:10452000019A02941A6B42F004021A631A6B02F0A9
:1045300004020292029A03941A6B42F020021A6358
:104540001A6B02F020020392039A04941A6B42F051
:1045500080021A631A6B02F080020492049A059496
:104560001A6B42F001021A631A6B02F00102059203
:10457000059A06941A6B42F002021A631B6B03F051
:1045800002030693384601222021069BFCF784FE95
:10459000224628460421FCF77FFE012228464FF4DC
:1045A000E471FCF779FE0126202307A9384607931A
:1045B000089609940A94FCF789FD0423079307A938
:1045C00002232846099308960A94FCF77FFD0823E6
:1045D00007A928460793089609940A94FCF776FDE4
:1045E0004FF4E07307A928460793089609960A94A2
:1045F000FCF76CFD4FF4C063079307A9134B0893B6
:1046000028460996FCF762FD4FF48053079307A9EB
:104610000F4B089328460994FCF758FD2246214683
:104620001720FCF7E5FC1720FCF716FD2246214673
:104630002820FCF7DDFC2820FCF70EFD0DB0F0BDB6
:104640000038024000100240001402400000111027
:104650000000211008B50C480C4BDFF834E04FF493
:10466000804280E8084000238360C36002614361A8
:104670008361C3610362FCF7F1FF18B1BDE8084034
:1046800000F05FBD08BD00BF781700200054004057
:10469000A086010008B50B480B4A0C4B80E80C00C3
:1046A00000234FF480428260C360026143618361F2
:1046B000C3610362FCF7D2FF18B1BDE8084000F007
:1046C00040BD08BDCC17002000580040801A0600ED
:1046D00030B514228BB0044600210DEB020001F02E
:1046E00025FA2368364A934235D10025354C019589
:1046F000236B354843F002032363236B03F002036B
:104700000193019BC0230593122306930123079372
:104710000323089305A904230993FCF7D7FC02950A
:10472000236C43F400132364236C03F400132A4620
:10473000294602931F20029BFCF75AFC1F20FCF71E
:104740008BFC20202A462946FCF752FC2020FCF74F
:1047500083FC0BB030BD1D4A9342FAD10025194CA1
:104760000395236B1A4843F020032363236B03F064
:1047700020030393039B12220323059306920893BD
:104780000122042305A907920993FCF79FFC0495D5
:10479000236C43F480032364236C03F480032A46D0
:1047A000294604932120049BFCF722FC2120FCF7DE
:1047B00053FC22202A462946FCF71AFC2220C6E791
:1047C00000540040003802400004024000580040FD
:1047D000001402401FB50A28019009D104A90D2335
:1047E00041F8043D01224FF6FF730748FEF73EFDF6
:1047F0004FF6FF73012201A90348FEF737FD019828
:1048000005B05DF804FB00BF302B00202DE9F04F10
:1048100080468BB00F46012204218D48FCF73CFDF9
:10482000D8F800208B48136823F0010313603A681E
:1048300013680DF12809402623F00103136049F89D
:10484000286D04230124022511224946049309936B
:10485000019202940395069207940895FCF736FCA2
:10486000224631467B48FCF717FD802649467948A9
:104870000096FCF72BFC31460AAE22467548FCF741
:104880000BFD46F8145D72483146FCF71FFC2246CA
:1048900029466F486F4DFCF7FFFC31466C48059484
:1048A000FCF714FC224621466948FCF7F5FC00247D
:1048B00040212846FCF7EAFC012801D1644D08E0BC
:1048C0000134652CF4D10BB0BDE8F08F0134652CB8
:1048D000F9D002212846FCF7D9FC0128F6D15D4D1C
:1048E0000DE0002240212846FCF7D6FC00BF012243
:1048F000402128460134FCF7CFFC642CE3DC802106
:104900002846FCF7C3FC0128EBD1514D0CE00221F5
:104910002846FCF7C1FC00BF0122022128460134D1
:10492000FCF7BAFC642CCEDC01212846FCF7AEFC77
:10493000012882464FF00002E9D180214548454DCB
:10494000FCF7AAFC002251464148FCF7A5FC802157
:104950002846FCF79BFC10B9DFF8F4A006E0013410
:10496000642CF4DDAFE70134642CACDC012150464B
:10497000FCF78CFC05460028F5D10246402135485D
:10498000FCF78AFC2A4602213148FCF785FC05F138
:10499000804505F5013540212846FCF777FC08B92C
:1049A0002B4D06E00134642CF5DD8CE70134642CDA
:1049B00089DC02212846FCF769FC0028F6D100F1C9
:1049C00080400122402100F50130FCF765FC012206
:1049D00002211F481F4DFCF75FFC40212846FCF7D1
:1049E00055FC012802D1DFF868A007E00134642CEF
:1049F000F3DD68E70134642C3FF765AF02215046D0
:104A0000FCF744FC01280546F4D1024680211148F8
:104A1000FCF742FC2A4629460D480E4DFCF73CFCAB
:104A200080212846FCF732FC012802D1DFF820A0C3
:104A300021E0002240212846FCF72EFC00BF012285
:104A4000402128460134FCF727FC642CE8DD3AE7D6
:104A50000014024000040240002202215046FCF7EC
:104A60001BFC00BF0122022150460134FCF714FC5C
:104A7000642C3FF728AF01215046FCF707FC0128C2
:104A80000546E9D10423122202904FF0000A079054
:104A9000402449463E4804930993019206924FF000
:104AA000800BCDF80CA0CDF820A00094FCF70EFBF5
:104AB00049463748CDF800B04FF00209FCF706FB35
:104AC00031463448CDF81490FCF700FB31463148AC
:104AD0000595FCF7FBFA2A4621462D48FCF7DCFB3E
:104AE0002A4659462A48FCF7D7FB2A464946294810
:104AF000FCF7D2FB2A4629462648FCF7CDFBD8F81E
:104B00000020136843F4004313603B68196841F4C4
:104B10000041196000BF116821F40041116019685B
:104B200021F40041196000BF116841F001011160DA
:104B30001A6842F001021A604046FCF78FFD3846C1
:104B4000FCF78CFD2A464FF4E0711248FCF7A4FBF9
:104B5000114B1B6823B1524621460E48FCF79CFBC3
:104B60000E4B1B6823B1002280210A48FCF794FBFE
:104B70000B4B1B682BB100224FF480710548FCF7EA
:104B80008BFB002204210348FCF786FB9BE600BF59
:104B90000004024000140240B00D0020B40D0020BB
:104BA000A40D002070B594B03022002108A800F0B8
:104BB000BDFF0021142203A800F0B8FF00241C4B05
:104BC00001941A6C42F080521A641B6C03F08053FB
:104BD0000193019B174B02941A6842F480421A60B9
:104BE0001B6803F480430293029B4FF480330993C4
:104BF0004FF480030F9319231093C023022501263D
:104C0000119308A80423139308960E951295FDF7A7
:104C100045FF0F2303938023059331464FF48053C0
:104C200003A8049506930794FEF7E8F814B070BD46
:104C300000380240007000402DE9F04FA5B0FCF7AD
:104C4000ABF9FFF7AFFFFFF757FCFFF703FDFFF7E7
:104C500021FD00F063FE00F07DFE012220217C4852
:104C6000FCF71AFB64227B497B48FEF75CFB64225D
:104C70007A497B48FEF757FB05227A4978484FF678
:104C8000FF73FEF7F3FA002277497848FEF7A6FF94
:104C9000002840F093809FED761A9FED760A7648C3
:104CA000F6EE000A00F0F8FB7448FEF7F9FE012862
:104CB00040F0A38072486C4C01F0B4FC0FF2881BEA
:104CC000DBE900AB0026374600F002FE21466748CC
:104CD000FFF778F9002840F09E8021466348FFF7EF
:104CE0008DF821466148FFF7C7F821465F48FFF776
:104CF0000BF9DFF88481D4ED022A94ED012AD4ED7A
:104D0000001A94ED051AD4ED040A94ED030A404606
:104D100000F0D3FB5B4B1B680593002B00F0C480B5
:104D2000D8F80400584DFBF70FFCCDE90201D8F884
:104D30000000FBF709FCCDE9000154492A680BA8E3
:104D400001F088FC2B68012B09D10BA8FBF740FA76
:104D50004FF6FF7382B20BA94148FEF787FA4C4D1C
:104D60002B68002BB0D0FEF727FEFEF71FFEA0F148
:104D70002903582B9CBF3618013700F0FDFC454B2A
:104D80001B68C01A42F20F7398429DD996FBF7F246
:104D9000414906A801F05EFC06A8FBF719FA4FF698
:104DA000FF7382B206A92C48FEF760FA0122802127
:104DB0003A48FCF771FA00232B6085E738482A4D02
:104DC0002A4C364E01F02EFC00224FF4E07133489D
:104DD000FCF762FA002229462046FEF7FFFE002873
:104DE0003FF459AF304600224FF4E071FCF754FA1B
:104DF00021462248FFF70AFDECE700224FF4E0715C
:104E00002648FCF749FA19491C48FFF7FFFC1B48E4
:104E1000FEF746FE4EE7DFF88C80144D404601F069
:104E200001FC00224FF4A0711C48FCF735FA29461A
:104E30001248FFF7EBFC002221462846FEF7CEFE83
:104E40000028EBD155E700BF3333333333330B4006
:104E500000100240CC2A0020302B0020682A0020BD
:104E6000702B00202B92000870180020CC17002017
:104E70000000000000007A44281800207817002065
:104E800040920008B00D0020AC0D00205B9200089D
:104E9000B40D0020281900209A9200080014024046
:104EA0003192000846920008D4ED017AD4ED006AF0
:104EB00094ED027A564D67EEA77AE6EEA67AE7EE13
:104EC000077A17EE900AFBF73FFB41EC100B03F05B
:104ED000A1FA2B6859EC108B002B00F088804AA3B4
:104EE000D3E9002310EE100A4946FBF711FE002813
:104EF00074D001224FF480714648FCF7CDF9464842
:104F000001F090FB059B2B604FF47A7000F01CFCC5
:104F100052465B4640464946FBF7FAFD90B10022F7
:104F20004FF480713B48FCF7B7F93C4801F07AFB3D
:104F300000F022FC3A4B186001234FF47A702B608A
:104F400000F002FC2B688BB300F016FC344B1B689E
:104F5000C01A42F20F73984228D9324801F062FB1E
:104F60004FF00008012204212A48C5F80080FCF710
:104F700093F94FF47A7000F0E7FB4246042125488C
:104F8000FCF78AF901224FF480712248FCF784F97A
:104F9000254906A801F082FB06A8FBF719F94FF690
:104FA000FF7382B206A92148FEF760F9204D2B68F5
:104FB000012B7FF4D4AE1F4B1F491A680BA801F0D8
:104FC00049FB0BA8FBF704F94FF6FF7382B20BA95C
:104FD0001A48FEF74BF900232B60C0E652465B46A9
:104FE00040464946FBF794FD002898D1ACE752466D
:104FF0005B4610EE100A4946FBF78AFD0028D5D023
:105000008DE700BFAFF30080666666666666F63FB2
:10501000A40D0020001402406A9200087992000852
:1050200020180020819200088F920008302B002069
:10503000A80D0020AC0D002091920008702B0020DC
:10504000B0F5805F08B503D1BDE80840FEF72CBB82
:10505000B0F5007F14D1144B14491A6862B10022D4
:105060001A6003230B60124B01221A604021114881
:10507000BDE80840FCF710B9012018600860F5E7AA
:10508000B0F5806F0ED10C4801F0CCFA0B4B0948FB
:1050900001221A6080210022FCF7FEF800F06CFB70
:1050A000074B186008BD00BFB00D0020AC0D0020FC
:1050B000A80D0020001402401C920008B40D00202E
:1050C000281900201FB58DF80D304FF47A738DF834
:1050D0000C20009303AA02230446FCF763FB18B1DB
:1050E0002046FDF7D9FC012004B010BDF0B585B015
:1050F00004AD1F4605F8012D4FF6FF7300932A46B5
:10510000012304460E46FCF74DFB60B94FF47A7359
:1051100000933A46BDF8283031462046FCF710FC93
:1051200058B905B0F0BD2046FDF7B6FC2046FDF7A6
:10513000B3FC2028EAD10120F3E72046FDF7ACFCC0
:10514000F9E7704782B00C4B002100915A6C42F491
:1051500080425A645A6C02F480420092009A019193
:105160001A6C42F080521A641B6C03F08053019356
:10517000019B02B0704700BF003802407047FEE755
:10518000FEE7FEE7FEE770477047704700F0A4BAFD
:105190004FF40070FCF786B80148FCF7C3BF00BFAE
:1051A000781700200148FDF7E1BB00BF7817002009
:1051B0000148FCF7B7BF00BFCC1700200148FDF73E
:1051C000D5BB00BFCC17002010B50A4C2046FEF717
:1051D00013F923685868C0B200F0E8FA642206495F
:1051E0002046FEF7A0F818B1BDE81040FFF7A9BFB0
:1051F00010BD00BF302B0020CC2A002008B54FF492
:105200008060FCF74FF84FF48050BDE80840FCF791
:1052100049B8000010B50A4C2046FEF7EDF82368A7
:105220005868C0B200F0DCFA642206492046FEF756
:105230007AF818B1BDE81040FFF783BF10BD00BF7A
:10524000702B0020682A002070B50E4615460C46CB
:10525000A31B9D4201DC284670BDAFF3008004F81B
:10526000010BF5E770B50E4615460C46A31B9D4293
:1052700001DC284670BD14F8010BFFF7ABFAF5E727
:1052800008B50A4B1968024609B909491960186836
:10529000694602448A4206D900F016FC0C230360DA
:1052A0004FF0FF3008BD1A6008BD00BFBC0D0020E4
:1052B000B42B00204FF0FF3070474FF400534B6089
:1052C0000020704701207047002070470F49D1F837
:1052D000883043F47003C1F888300D4B1A68002001
:1052E00042F001021A6098601A6822F0847222F477
:1052F00080321A60074A5A601A6822F480221A60C3
:10530000D8604FF000638B60704700BF00ED00E095
:10531000003802401030002408B510EE100AFBF7E8
:1053200013F941EC100B03F075F851EC100BFBF77F
:1053300037FC07EE900AB7EE000A80EE270A08BD98
:1053400010B52DED048B90ED069A90ED078AF6EEE0
:10535000008AF0EE687AE9EE497A044682B0E8EE17
:10536000487A17EE900AFBF7EFF8D4ED087A28EEAA
:10537000278AD4ED057AA7EE898ACDE9000118EED7
:10538000100AFBF7E1F89DED001B41EC100B03F058
:105390003FF851EC100BFBF703FC94ED057AD4EDCC
:1053A000077AD4ED066A206067EEC77A94ED087A32
:1053B000E6EE877AB8EE007A67EE877A17EE900A03
:1053C000FBF7C2F841EC100B02F0CAFF51EC100BD6
:1053D000FBF7E6FB94ED079A94ED088A6060E9EE2E
:1053E000498AE8EE488A18EE900AFBF7ADF8D4ED4A
:1053F000057A28EE278AD4ED067AA7EE898ACDE9C8
:10540000000118EE100AFBF79FF89DED001B41EC20
:10541000100B02F0FDFF9FED1D8AD4ED007A67EEC0
:10542000887A51EC100BC4ED007AD4ED017A67EE66
:10543000887AC4ED017AFBF7B3FBD4ED037A07EE6B
:10544000100AD7EE087A9FED127AF0EE676ADFED68
:10545000117AF4EEE76AF1EE10FA06D577EEE67A05
:1054600077EE677AC4ED027A06E0F4EEC76AF1EEF1
:1054700010FA05DCC4ED026A02B0BDEC048B10BD6D
:1054800037EE667A77EEC77AECE700BFE12E654229
:1054900000003443000034C3F7EE007AC7EEA00AE0
:1054A00000238361C361036280ED040AC0ED090A31
:1054B00080ED031AC0ED057A704710B5D0ED067A7D
:1054C000D0ED076A90ED056AD0ED085A2DED0A8BF4
:1054D00060EEE6BA26EE81BA61EE67AA27EEA09AE0
:1054E000E7EEC0BA0446A0EE06BAE0EE86AAA1EE48
:1054F000069AE5EEC1BAA0EEE5BAE0EE25AAA0EE66
:10550000669AF5EE401AB6EE007AF1EE10FAF0EE79
:10551000619AF0EE428AB0EE628A6BEE87BA2BEEA9
:1055200007BA6AEE87AA29EE079A0AD1B5EE402A91
:10553000F1EE10FA05D1F5EE402AF1EE10FA00F086
:10554000868028EEA80AA9EEA90AA8EE080AFFF7A5
:10555000E3FED4ED086AD4ED064A94ED053A94EDE5
:1055600007CA69EE801A36EEA61AF1EE005A68EE06
:10557000002A66EEA60A20EE680A24EEA58A61EEED
:10558000618A73EE037A23EE252AE8EE208A23EE61
:10559000033AF2EE003A23EE253A24EEA45AE4EE62
:1055A000838A64EEA3CAE0EE278A2CEE0C7A78EEAA
:1055B000C88A2CEE254AECEE858A3CEE0C6AECEEAD
:1055C000878A21EE86AAE2EE888A21EEA78AA2EED9
:1055D00007AAACEE038AA2EE05AAA4EE208A74EE16
:1055E000A49AA0EE018A6CEE233A38EE448AA0EE2B
:1055F00029AAA3EE858A69EEE19A25EE255AA3EE43
:10560000878AE6EE859A27EE257AA2EE848AE6EE70
:10561000879AE0EE069A28EEA80AAAEE0A0AA8EEF1
:10562000080AA9EEA90AFFF777FED4ED047A20EE66
:105630004AAA60EE688A20EE488A20EE690AEAEEFD
:1056400027BAA8EEA7BAE8EE27AAA0EE279A94ED0B
:10565000096A94ED060AD4ED056A94ED077AD4ED53
:10566000087AABEE060AEBEE866A84ED060A20EEB7
:10567000000AAAEE867AA6EEA60AE9EE067AA7EE58
:10568000070AC4ED087AC4ED056A84ED077AA7EE2F
:10569000A70AFFF741FED4ED057A67EE807ABDECEC
:1056A0000A8BC4ED057AD4ED067A67EE807A20463F
:1056B000C4ED067AD4ED077A67EE807AC4ED077AF6
:1056C000D4ED087A27EE800A84ED080ABDE8104080
:1056D000FFF736BE70470000184AF8B5136801336B
:1056E0001360174B1A6812B11A68013A1A60154E06
:1056F000002537463378ECB2A34202D8FFF7EAFF21
:10570000F8BDA40033195868B0B103789B0713D5CE
:1057100083680BB1013B836083686BB93C44C36809
:1057200001699847626853689360137813F0010128
:1057300004BF61F3410313700135DBE7D80D00208E
:10574000DC0D0020C00D0020EFF3058313B1084BE2
:1057500038B97047074B19681A68521A9042FBD83B
:1057600070471A68D20348BF00F1FF30F0E700BF6E
:1057700010E000E0D80D0020014B1868704700BF12
:10578000D80D002003680133B3F57A7F08BF0023EA
:1057900003607047034B1868034B1B68C31A5842D9
:1057A00058417047E40D0020E80D0020034B044AE7
:1057B000196822F811001846FFF7E4BFE40D002035
:1057C000FC200020044808B50268044B33F812207E
:1057D000FFF7D8FF104608BDE80D0020FC20002090
:1057E000034B044A196822F811001846FFF7CABF94
:1057F000E00D00202C190020421E10B50346072A98
:1058000048D8DFE802F004040404041624372349CE
:10581000234802220A60234900F01CFF2048FAF7BF
:10582000D7FC4FF6FF7382B21D491F48FDF71EFDDE
:1058300009E01E4A1E4801231360184A40211360E4
:105840000022FBF729FD1B4B00221A6010BD174BED
:10585000124C174800221A6003232360164B0122C2
:1058600040211A60FBF718FD226814490C4800F02B
:10587000F1FED3E7124800F0D5FE124B0C4801228E
:105880001A6080210022FBF707FDFFF775FF0E4B22
:105890001860D8E70D4800F0C5FED4E7AC0D002035
:1058A00030290020B7920008702B0020B00D002096
:1058B00000140240B80D0020A80D002091920008AD
:1058C0001C920008B40D002028190020C192000885
:1058D00038B50F4D0F4CFFF75DFF00B138BDFFF736
:1058E00071FFC0B25B2804BF0123236023682870C6
:1058F00043B15B2806D05D2804D0074B30381860D0
:10590000FFF77AFF2B785D2BE5D100232360E1E7D9
:10591000642A0020FC290020B80D002008B50B489F
:105920000B4B4FF4E13E80E808400C2200238360DB
:10593000C360036142618361C361FDF769FC18B113
:10594000BDE80840FFF7FDBB08BD00BF302B0020BD
:105950000010014008B50B480B4B4FF4E13E80E8C6
:1059600008400C2200238360C360036142618361AD
:10597000C361FDF74DFC18B1BDE80840FFF7E1BB7E
:1059800008BD00BF702B00200014014010B5142288
:105990008AB0044600210DEB020000F0C7F823682E
:1059A0002F4A93422ED12F4B2F48002401945A6C3A
:1059B00042F010025A645A6C02F010020192019AED
:1059C00002941A6B42F001021A631B6B03F001038D
:1059D0000293029B4FF4C0630593022306930123B5
:1059E00007930323089305A907230993FBF76EFB8D
:1059F000252022462146FBF7FBFA2520FBF72CFB4E
:105A00000AB010BD194A9342FAD1164B1848002427
:105A100003945A6C42F020025A645A6C02F020023D
:105A20000392039A04941A6B42F004021A631B6BEC
:105A300003F004030493049BC023059302230693FD
:105A4000012307930323089305A908230993FBF770
:105A50003DFB472022462146FBF7CAFA4720CDE707
:105A600000100140003802400000024000140140D4
:105A700000080240DFF834D0002103E00C4B5B58F3
:105A8000435004310B480C4B42189A42F6D30B4A50
:105A900002E0002342F8043B094B9A42F9D3FFF796
:105AA00015FC00F017F8FFF7C7F870470000022058
:105AB000F095000800000020E0010020E001002037
:105AC000B42B0020FEE70000014B1868704700BFB0
:105AD0000C00002070B50D4E0D4CA41BA410002529
